{"abi":[{"type":"function","name":"approveRequest","inputs":[{"name":"_requestId","type":"uint256","internalType":"uint256"}],"outputs":[],"stateMutability":"nonpayable"},{"type":"function","name":"getDetailedUserRequests","inputs":[{"name":"_user","type":"address","internalType":"address"}],"outputs":[{"name":"","type":"tuple[]","internalType":"struct EnhancedDataRequestContract.DataRequest[]","components":[{"name":"id","type":"uint256","internalType":"uint256"},{"name":"requester","type":"address","internalType":"address"},{"name":"user","type":"address","internalType":"address"},{"name":"fields","type":"string[]","internalType":"string[]"},{"name":"status","type":"uint8","internalType":"enum EnhancedDataRequestContract.RequestStatus"}]}],"stateMutability":"view"},{"type":"function","name":"getRequestStatus","inputs":[{"name":"_requestId","type":"uint256","internalType":"uint256"}],"outputs":[{"name":"","type":"uint8","internalType":"enum EnhancedDataRequestContract.RequestStatus"}],"stateMutability":"view"},{"type":"function","name":"getRequestsByRequester","inputs":[{"name":"_requester","type":"address","internalType":"address"}],"outputs":[{"name":"","type":"uint256[]","internalType":"uint256[]"}],"stateMutability":"view"},{"type":"function","name":"getUserRequests","inputs":[{"name":"_user","type":"address","internalType":"address"}],"outputs":[{"name":"","type":"uint256[]","internalType":"uint256[]"}],"stateMutability":"view"},{"type":"function","name":"rejectRequest","inputs":[{"name":"_requestId","type":"uint256","internalType":"uint256"}],"outputs":[],"stateMutability":"nonpayable"},{"type":"function","name":"requestData","inputs":[{"name":"_user","type":"address","internalType":"address"},{"name":"_fields","type":"string[]","internalType":"string[]"}],"outputs":[],"stateMutability":"nonpayable"},{"type":"function","name":"requesterToRequestIds","inputs":[{"name":"","type":"address","internalType":"address"},{"name":"","type":"uint256","internalType":"uint256"}],"outputs":[{"name":"","type":"uint256","internalType":"uint256"}],"stateMutability":"view"},{"type":"function","name":"requests","inputs":[{"name":"","type":"uint256","internalType":"uint256"}],"outputs":[{"name":"id","type":"uint256","internalType":"uint256"},{"name":"requester","type":"address","internalType":"address"},{"name":"user","type":"address","internalType":"address"},{"name":"status","type":"uint8","internalType":"enum EnhancedDataRequestContract.RequestStatus"}],"stateMutability":"view"},{"type":"function","name":"userToRequestIds","inputs":[{"name":"","type":"address","internalType":"address"},{"name":"","type":"uint256","internalType":"uint256"}],"outputs":[{"name":"","type":"uint256","internalType":"uint256"}],"stateMutability":"view"},{"type":"event","name":"DataRequestApproved","inputs":[{"name":"requestId","type":"uint256","indexed":false,"internalType":"uint256"}],"anonymous":false},{"type":"event","name":"DataRequestRejected","inputs":[{"name":"requestId","type":"uint256","indexed":false,"internalType":"uint256"}],"anonymous":false},{"type":"event","name":"NewDataRequest","inputs":[{"name":"requestId","type":"uint256","indexed":false,"internalType":"uint256"},{"name":"requester","type":"address","indexed":true,"internalType":"address"},{"name":"user","type":"address","indexed":true,"internalType":"address"},{"name":"fields","type":"string[]","indexed":false,"internalType":"string[]"}],"anonymous":false}],"bytecode":{"object":"0x6080604052600060035534801561001557600080fd5b5061103b806100256000396000f3fe608060405234801561001057600080fd5b506004361061009e5760003560e01c806381d12c581161006657806381d12c5814610131578063b337cf7414610186578063d7d1bbdb14610199578063d8a4676f146101ac578063fc2304a5146101df57600080fd5b80630931792c146100a35780632aac38c0146100c95780632d7788db146100e9578063633847e2146100fe5780636700639414610111575b600080fd5b6100b66100b1366004610a4d565b6101f2565b6040519081526020015b60405180910390f35b6100dc6100d7366004610a77565b610223565b6040516100c09190610a99565b6100fc6100f7366004610add565b61028f565b005b6100fc61010c366004610b3d565b610396565b61012461011f366004610a77565b610558565b6040516100c09190610d25565b61017661013f366004610add565b600060208190529081526040902080546001820154600283015460049093015491926001600160a01b039182169291169060ff1684565b6040516100c09493929190610dd5565b6100dc610194366004610a77565b6107eb565b6100fc6101a7366004610add565b610855565b6101d26101ba366004610add565b60009081526020819052604090206004015460ff1690565b6040516100c09190610e09565b6100b66101ed366004610a4d565b610950565b6001602052816000526040600020818154811061020e57600080fd5b90600052602060002001600091509150505481565b6001600160a01b03811660009081526002602090815260409182902080548351818402810184019094528084526060939283018282801561028357602002820191906000526020600020905b81548152602001906001019080831161026f575b50505050509050919050565b600081815260208190526040902060028101546001600160a01b031633146103175760405162461bcd60e51b815260206004820152603060248201527f4f6e6c7920746865206173736f63696174656420757365722063616e2072656a60448201526f1958dd081d1a1a5cc81c995c5d595cdd60821b60648201526084015b60405180910390fd5b6000600482015460ff16600281111561033257610332610ced565b1461034f5760405162461bcd60e51b815260040161030e90610e1d565b60048101805460ff191660021790556040518281527f87c86875a161a926095aa94677d7d51e4c3287924ff45bff0c893d3a60bc4995906020015b60405180910390a15050565b60008151116103f75760405162461bcd60e51b815260206004820152602760248201527f4174206c65617374206f6e65206669656c642073686f756c64206265207265716044820152663ab2b9ba32b21760c91b606482015260840161030e565b6003805490600061040783610e5e565b90915550506040805160a081018252600380548083523360208085019182526001600160a01b0388811686880190815260608701898152600060808901819052958652858452979094208651815592516001840180546001600160a01b031990811692841692909217905593516002840180549095169116179092559351805193949361049b93850192919091019061096c565b50608082015160048201805460ff191660018360028111156104bf576104bf610ced565b021790555050506001600160a01b038216600081815260016020818152604080842060038054825480870184559287528487209092019190915533808652600284528286208254815496870182559087529390952090930191909155905490517fe4bf495d1a93acbfd9ac4ef0e94ce4d30cbd371e033155efb40ce754830789939161054c918690610e85565b60405180910390a35050565b6001600160a01b03811660009081526001602090815260408083208054825181850281018501909352808352606094938301828280156105b757602002820191906000526020600020905b8154815260200190600101908083116105a3575b505050505090506000815167ffffffffffffffff8111156105da576105da610af6565b60405190808252806020026020018201604052801561063957816020015b6106266040805160a08101825260008082526020820181905291810182905260608082015290608082015290565b8152602001906001900390816105f85790505b50905060005b82518110156107e35760008084838151811061065d5761065d610ea6565b60209081029190910181015182528181019290925260409081016000908120825160a0810184528154815260018201546001600160a01b039081168287015260028301541681850152600382018054855181880281018801909652808652919592946060870194909391929184015b828210156107785783829060005260206000200180546106eb90610ebc565b80601f016020809104026020016040519081016040528092919081815260200182805461071790610ebc565b80156107645780601f1061073957610100808354040283529160200191610764565b820191906000526020600020905b81548152906001019060200180831161074757829003601f168201915b5050505050815260200190600101906106cc565b50505090825250600482015460209091019060ff16600281111561079e5761079e610ced565b60028111156107af576107af610ced565b815250508282815181106107c5576107c5610ea6565b602002602001018190525080806107db90610e5e565b91505061063f565b509392505050565b6001600160a01b038116600090815260016020908152604091829020805483518184028101840190945280845260609392830182828015610283576020028201919060005260206000209081548152602001906001019080831161026f5750505050509050919050565b600081815260208190526040902060028101546001600160a01b031633146108d95760405162461bcd60e51b815260206004820152603160248201527f4f6e6c7920746865206173736f63696174656420757365722063616e206170706044820152701c9bdd99481d1a1a5cc81c995c5d595cdd607a1b606482015260840161030e565b6000600482015460ff1660028111156108f4576108f4610ced565b146109115760405162461bcd60e51b815260040161030e90610e1d565b60048101805460ff191660011790556040518281527f0c8689f8b0f2678fe778b84816568d0687dd762812a061da362d37f9a74ad54d9060200161038a565b6002602052816000526040600020818154811061020e57600080fd5b8280548282559060005260206000209081019282156109b2579160200282015b828111156109b257825182906109a29082610f45565b509160200191906001019061098c565b506109be9291506109c2565b5090565b808211156109be5760006109d682826109df565b506001016109c2565b5080546109eb90610ebc565b6000825580601f106109fb575050565b601f016020900490600052602060002090810190610a199190610a1c565b50565b5b808211156109be5760008155600101610a1d565b80356001600160a01b0381168114610a4857600080fd5b919050565b60008060408385031215610a6057600080fd5b610a6983610a31565b946020939093013593505050565b600060208284031215610a8957600080fd5b610a9282610a31565b9392505050565b6020808252825182820181905260009190848201906040850190845b81811015610ad157835183529284019291840191600101610ab5565b50909695505050505050565b600060208284031215610aef57600080fd5b5035919050565b634e487b7160e01b600052604160045260246000fd5b604051601f8201601f1916810167ffffffffffffffff81118282101715610b3557610b35610af6565b604052919050565b6000806040808486031215610b5157600080fd5b610b5a84610a31565b925060208085013567ffffffffffffffff80821115610b7857600080fd5b8187019150601f8881840112610b8d57600080fd5b823582811115610b9f57610b9f610af6565b8060051b610bae868201610b0c565b918252848101860191868101908c841115610bc857600080fd5b87870192505b83831015610c5557823586811115610be65760008081fd5b8701603f81018e13610bf85760008081fd5b8881013587811115610c0c57610c0c610af6565b610c1d818801601f19168b01610b0c565b8181528f8c838501011115610c325760008081fd5b818c84018c83013760009181018b01919091528352509187019190870190610bce565b8099505050505050505050509250929050565b600081518084526020808501808196508360051b810191508286016000805b86811015610cdf578385038a5282518051808752835b81811015610cb8578281018901518882018a01528801610c9d565b5086810188018490529a87019a601f01601f19169095018601945091850191600101610c87565b509298975050505050505050565b634e487b7160e01b600052602160045260246000fd5b60038110610d2157634e487b7160e01b600052602160045260246000fd5b9052565b60006020808301818452808551808352604092508286019150828160051b87010184880160005b83811015610dc757888303603f19018552815180518452878101516001600160a01b039081168986015287820151168785015260608082015160a08287018190529190610d9b83880182610c68565b925050506080808301519250610db381870184610d03565b509588019593505090860190600101610d4c565b509098975050505050505050565b8481526001600160a01b0384811660208301528316604082015260808101610e006060830184610d03565b95945050505050565b60208101610e178284610d03565b92915050565b60208082526021908201527f52657175657374206973206e6f7420696e20612070656e64696e6720737461746040820152606560f81b606082015260800190565b600060018201610e7e57634e487b7160e01b600052601160045260246000fd5b5060010190565b828152604060208201526000610e9e6040830184610c68565b949350505050565b634e487b7160e01b600052603260045260246000fd5b600181811c90821680610ed057607f821691505b602082108103610ef057634e487b7160e01b600052602260045260246000fd5b50919050565b601f821115610f4057600081815260208120601f850160051c81016020861015610f1d5750805b601f850160051c820191505b81811015610f3c57828155600101610f29565b5050505b505050565b815167ffffffffffffffff811115610f5f57610f5f610af6565b610f7381610f6d8454610ebc565b84610ef6565b602080601f831160018114610fa85760008415610f905750858301515b600019600386901b1c1916600185901b178555610f3c565b600085815260208120601f198616915b82811015610fd757888601518255948401946001909101908401610fb8565b5085821015610ff55787850151600019600388901b60f8161c191681555b5050505050600190811b0190555056fea264697066735822122007e20d62aa17aea7dbc9803d878dc38eff9d785dd763f1b4f64818417efb27aa64736f6c63430008120033","linkReferences":{}},"methodIdentifiers":{"approveRequest(uint256)":"d7d1bbdb","getDetailedUserRequests(address)":"67006394","getRequestStatus(uint256)":"d8a4676f","getRequestsByRequester(address)":"2aac38c0","getUserRequests(address)":"b337cf74","rejectRequest(uint256)":"2d7788db","requestData(address,string[])":"633847e2","requesterToRequestIds(address,uint256)":"fc2304a5","requests(uint256)":"81d12c58","userToRequestIds(address,uint256)":"0931792c"},"id":1}